{
  "_format": "hh-sol-artifact-1",
  "contractName": "TokenMaster",
  "sourceName": "contracts/TokenMaster.sol",
  "abi": [
    {
      "inputs": [
        {
          "internalType": "string",
          "name": "_name",
          "type": "string"
        },
        {
          "internalType": "string",
          "name": "_symbol",
          "type": "string"
        }
      ],
      "stateMutability": "nonpayable",
      "type": "constructor"
    },
    {
      "anonymous": false,
      "inputs": [
        {
          "indexed": true,
          "internalType": "address",
          "name": "owner",
          "type": "address"
        },
        {
          "indexed": true,
          "internalType": "address",
          "name": "approved",
          "type": "address"
        },
        {
          "indexed": true,
          "internalType": "uint256",
          "name": "tokenId",
          "type": "uint256"
        }
      ],
      "name": "Approval",
      "type": "event"
    },
    {
      "anonymous": false,
      "inputs": [
        {
          "indexed": true,
          "internalType": "address",
          "name": "owner",
          "type": "address"
        },
        {
          "indexed": true,
          "internalType": "address",
          "name": "operator",
          "type": "address"
        },
        {
          "indexed": false,
          "internalType": "bool",
          "name": "approved",
          "type": "bool"
        }
      ],
      "name": "ApprovalForAll",
      "type": "event"
    },
    {
      "anonymous": false,
      "inputs": [
        {
          "indexed": true,
          "internalType": "address",
          "name": "from",
          "type": "address"
        },
        {
          "indexed": true,
          "internalType": "address",
          "name": "to",
          "type": "address"
        },
        {
          "indexed": true,
          "internalType": "uint256",
          "name": "tokenId",
          "type": "uint256"
        }
      ],
      "name": "Transfer",
      "type": "event"
    },
    {
      "inputs": [
        {
          "internalType": "address",
          "name": "to",
          "type": "address"
        },
        {
          "internalType": "uint256",
          "name": "tokenId",
          "type": "uint256"
        }
      ],
      "name": "approve",
      "outputs": [],
      "stateMutability": "nonpayable",
      "type": "function"
    },
    {
      "inputs": [
        {
          "internalType": "address",
          "name": "owner",
          "type": "address"
        }
      ],
      "name": "balanceOf",
      "outputs": [
        {
          "internalType": "uint256",
          "name": "",
          "type": "uint256"
        }
      ],
      "stateMutability": "view",
      "type": "function"
    },
    {
      "inputs": [
        {
          "internalType": "uint256",
          "name": "tokenId",
          "type": "uint256"
        }
      ],
      "name": "getApproved",
      "outputs": [
        {
          "internalType": "address",
          "name": "",
          "type": "address"
        }
      ],
      "stateMutability": "view",
      "type": "function"
    },
    {
      "inputs": [
        {
          "internalType": "uint256",
          "name": "_id",
          "type": "uint256"
        }
      ],
      "name": "getOccasion",
      "outputs": [
        {
          "components": [
            {
              "internalType": "uint256",
              "name": "id",
              "type": "uint256"
            },
            {
              "internalType": "string",
              "name": "name",
              "type": "string"
            },
            {
              "internalType": "uint256",
              "name": "cost",
              "type": "uint256"
            },
            {
              "internalType": "uint256",
              "name": "tickets",
              "type": "uint256"
            },
            {
              "internalType": "uint256",
              "name": "maxTickets",
              "type": "uint256"
            },
            {
              "internalType": "string",
              "name": "date",
              "type": "string"
            },
            {
              "internalType": "string",
              "name": "time",
              "type": "string"
            },
            {
              "internalType": "string",
              "name": "location",
              "type": "string"
            }
          ],
          "internalType": "struct TokenMaster.Occasion",
          "name": "",
          "type": "tuple"
        }
      ],
      "stateMutability": "view",
      "type": "function"
    },
    {
      "inputs": [
        {
          "internalType": "uint256",
          "name": "_id",
          "type": "uint256"
        }
      ],
      "name": "getSeatsTaken",
      "outputs": [
        {
          "internalType": "uint256[]",
          "name": "",
          "type": "uint256[]"
        }
      ],
      "stateMutability": "view",
      "type": "function"
    },
    {
      "inputs": [
        {
          "internalType": "uint256",
          "name": "",
          "type": "uint256"
        },
        {
          "internalType": "address",
          "name": "",
          "type": "address"
        }
      ],
      "name": "hasBought",
      "outputs": [
        {
          "internalType": "bool",
          "name": "",
          "type": "bool"
        }
      ],
      "stateMutability": "view",
      "type": "function"
    },
    {
      "inputs": [
        {
          "internalType": "address",
          "name": "owner",
          "type": "address"
        },
        {
          "internalType": "address",
          "name": "operator",
          "type": "address"
        }
      ],
      "name": "isApprovedForAll",
      "outputs": [
        {
          "internalType": "bool",
          "name": "",
          "type": "bool"
        }
      ],
      "stateMutability": "view",
      "type": "function"
    },
    {
      "inputs": [
        {
          "internalType": "string",
          "name": "_name",
          "type": "string"
        },
        {
          "internalType": "uint256",
          "name": "_cost",
          "type": "uint256"
        },
        {
          "internalType": "uint256",
          "name": "_maxTickets",
          "type": "uint256"
        },
        {
          "internalType": "string",
          "name": "_date",
          "type": "string"
        },
        {
          "internalType": "string",
          "name": "_time",
          "type": "string"
        },
        {
          "internalType": "string",
          "name": "_location",
          "type": "string"
        }
      ],
      "name": "list",
      "outputs": [],
      "stateMutability": "nonpayable",
      "type": "function"
    },
    {
      "inputs": [
        {
          "internalType": "uint256",
          "name": "_id",
          "type": "uint256"
        },
        {
          "internalType": "uint256",
          "name": "_seat",
          "type": "uint256"
        }
      ],
      "name": "mint",
      "outputs": [],
      "stateMutability": "payable",
      "type": "function"
    },
    {
      "inputs": [],
      "name": "name",
      "outputs": [
        {
          "internalType": "string",
          "name": "",
          "type": "string"
        }
      ],
      "stateMutability": "view",
      "type": "function"
    },
    {
      "inputs": [],
      "name": "owner",
      "outputs": [
        {
          "internalType": "address",
          "name": "",
          "type": "address"
        }
      ],
      "stateMutability": "view",
      "type": "function"
    },
    {
      "inputs": [
        {
          "internalType": "uint256",
          "name": "tokenId",
          "type": "uint256"
        }
      ],
      "name": "ownerOf",
      "outputs": [
        {
          "internalType": "address",
          "name": "",
          "type": "address"
        }
      ],
      "stateMutability": "view",
      "type": "function"
    },
    {
      "inputs": [
        {
          "internalType": "address",
          "name": "from",
          "type": "address"
        },
        {
          "internalType": "address",
          "name": "to",
          "type": "address"
        },
        {
          "internalType": "uint256",
          "name": "tokenId",
          "type": "uint256"
        }
      ],
      "name": "safeTransferFrom",
      "outputs": [],
      "stateMutability": "nonpayable",
      "type": "function"
    },
    {
      "inputs": [
        {
          "internalType": "address",
          "name": "from",
          "type": "address"
        },
        {
          "internalType": "address",
          "name": "to",
          "type": "address"
        },
        {
          "internalType": "uint256",
          "name": "tokenId",
          "type": "uint256"
        },
        {
          "internalType": "bytes",
          "name": "data",
          "type": "bytes"
        }
      ],
      "name": "safeTransferFrom",
      "outputs": [],
      "stateMutability": "nonpayable",
      "type": "function"
    },
    {
      "inputs": [
        {
          "internalType": "uint256",
          "name": "",
          "type": "uint256"
        },
        {
          "internalType": "uint256",
          "name": "",
          "type": "uint256"
        }
      ],
      "name": "seatTaken",
      "outputs": [
        {
          "internalType": "address",
          "name": "",
          "type": "address"
        }
      ],
      "stateMutability": "view",
      "type": "function"
    },
    {
      "inputs": [
        {
          "internalType": "address",
          "name": "operator",
          "type": "address"
        },
        {
          "internalType": "bool",
          "name": "approved",
          "type": "bool"
        }
      ],
      "name": "setApprovalForAll",
      "outputs": [],
      "stateMutability": "nonpayable",
      "type": "function"
    },
    {
      "inputs": [
        {
          "internalType": "bytes4",
          "name": "interfaceId",
          "type": "bytes4"
        }
      ],
      "name": "supportsInterface",
      "outputs": [
        {
          "internalType": "bool",
          "name": "",
          "type": "bool"
        }
      ],
      "stateMutability": "view",
      "type": "function"
    },
    {
      "inputs": [],
      "name": "symbol",
      "outputs": [
        {
          "internalType": "string",
          "name": "",
          "type": "string"
        }
      ],
      "stateMutability": "view",
      "type": "function"
    },
    {
      "inputs": [
        {
          "internalType": "uint256",
          "name": "tokenId",
          "type": "uint256"
        }
      ],
      "name": "tokenURI",
      "outputs": [
        {
          "internalType": "string",
          "name": "",
          "type": "string"
        }
      ],
      "stateMutability": "view",
      "type": "function"
    },
    {
      "inputs": [],
      "name": "totalOccasions",
      "outputs": [
        {
          "internalType": "uint256",
          "name": "",
          "type": "uint256"
        }
      ],
      "stateMutability": "view",
      "type": "function"
    },
    {
      "inputs": [],
      "name": "totalSupply",
      "outputs": [
        {
          "internalType": "uint256",
          "name": "",
          "type": "uint256"
        }
      ],
      "stateMutability": "view",
      "type": "function"
    },
    {
      "inputs": [
        {
          "internalType": "address",
          "name": "from",
          "type": "address"
        },
        {
          "internalType": "address",
          "name": "to",
          "type": "address"
        },
        {
          "internalType": "uint256",
          "name": "tokenId",
          "type": "uint256"
        }
      ],
      "name": "transferFrom",
      "outputs": [],
      "stateMutability": "nonpayable",
      "type": "function"
    },
    {
      "inputs": [],
      "name": "withdraw",
      "outputs": [],
      "stateMutability": "nonpayable",
      "type": "function"
    }
  ],
  "bytecode": "0x60806040523480156200001157600080fd5b506040516200401c3803806200401c83398181016040528101906200003791906200023b565b818181600090816200004a91906200050b565b5080600190816200005c91906200050b565b50505033600660006101000a81548173ffffffffffffffffffffffffffffffffffffffff021916908373ffffffffffffffffffffffffffffffffffffffff1602179055505050620005f2565b6000604051905090565b600080fd5b600080fd5b600080fd5b600080fd5b6000601f19601f8301169050919050565b7f4e487b7100000000000000000000000000000000000000000000000000000000600052604160045260246000fd5b6200011182620000c6565b810181811067ffffffffffffffff82111715620001335762000132620000d7565b5b80604052505050565b600062000148620000a8565b905062000156828262000106565b919050565b600067ffffffffffffffff821115620001795762000178620000d7565b5b6200018482620000c6565b9050602081019050919050565b60005b83811015620001b157808201518184015260208101905062000194565b60008484015250505050565b6000620001d4620001ce846200015b565b6200013c565b905082815260208101848484011115620001f357620001f2620000c1565b5b6200020084828562000191565b509392505050565b600082601f83011262000220576200021f620000bc565b5b815162000232848260208601620001bd565b91505092915050565b60008060408385031215620002555762000254620000b2565b5b600083015167ffffffffffffffff811115620002765762000275620000b7565b5b620002848582860162000208565b925050602083015167ffffffffffffffff811115620002a857620002a7620000b7565b5b620002b68582860162000208565b9150509250929050565b600081519050919050565b7f4e487b7100000000000000000000000000000000000000000000000000000000600052602260045260246000fd5b600060028204905060018216806200031357607f821691505b602082108103620003295762000328620002cb565b5b50919050565b60008190508160005260206000209050919050565b60006020601f8301049050919050565b600082821b905092915050565b600060088302620003937fffffffffffffffffffffffffffffffffffffffffffffffffffffffffffffffff8262000354565b6200039f868362000354565b95508019841693508086168417925050509392505050565b6000819050919050565b6000819050919050565b6000620003ec620003e6620003e084620003b7565b620003c1565b620003b7565b9050919050565b6000819050919050565b6200040883620003cb565b620004206200041782620003f3565b84845462000361565b825550505050565b600090565b6200043762000428565b62000444818484620003fd565b505050565b5b818110156200046c57620004606000826200042d565b6001810190506200044a565b5050565b601f821115620004bb5762000485816200032f565b620004908462000344565b81016020851015620004a0578190505b620004b8620004af8562000344565b83018262000449565b50505b505050565b600082821c905092915050565b6000620004e060001984600802620004c0565b1980831691505092915050565b6000620004fb8383620004cd565b9150826002028217905092915050565b6200051682620002c0565b67ffffffffffffffff811115620005325762000531620000d7565b5b6200053e8254620002fa565b6200054b82828562000470565b600060209050601f8311600181146200058357600084156200056e578287015190505b6200057a8582620004ed565b865550620005ea565b601f19841662000593866200032f565b60005b82811015620005bd5784890151825560018201915060208501945060208101905062000596565b86831015620005dd5784890151620005d9601f891682620004cd565b8355505b6001600288020188555050505b505050505050565b613a1a80620006026000396000f3fe6080604052600436106101405760003560e01c806370a08231116100b65780639cb04aef1161006f5780639cb04aef14610461578063a22cb4651461049e578063af296da1146104c7578063b88d4fde14610504578063c87b56dd1461052d578063e985e9c51461056a57610140565b806370a082311461033d57806374bc86561461037a5780638da5cb5b146103b7578063953865c1146103e257806395d89b411461040d5780639a382f0f1461043857610140565b806318160ddd1161010857806318160ddd146102505780631b2ef1ca1461027b57806323b872dd146102975780633ccfd60b146102c057806342842e0e146102d75780636352211e1461030057610140565b806301ffc9a71461014557806306fdde0314610182578063081812fc146101ad578063095ea7b3146101ea5780630ef7ec7414610213575b600080fd5b34801561015157600080fd5b5061016c600480360381019061016791906123c8565b6105a7565b6040516101799190612410565b60405180910390f35b34801561018e57600080fd5b50610197610689565b6040516101a491906124bb565b60405180910390f35b3480156101b957600080fd5b506101d460048036038101906101cf9190612513565b61071b565b6040516101e19190612581565b60405180910390f35b3480156101f657600080fd5b50610211600480360381019061020c91906125c8565b610761565b005b34801561021f57600080fd5b5061023a60048036038101906102359190612513565b610878565b60405161024791906126c6565b60405180910390f35b34801561025c57600080fd5b506102656108e3565b60405161027291906126f7565b60405180910390f35b61029560048036038101906102909190612712565b6108e9565b005b3480156102a357600080fd5b506102be60048036038101906102b99190612752565b610c08565b005b3480156102cc57600080fd5b506102d5610c68565b005b3480156102e357600080fd5b506102fe60048036038101906102f99190612752565b610d5d565b005b34801561030c57600080fd5b5061032760048036038101906103229190612513565b610d7d565b6040516103349190612581565b60405180910390f35b34801561034957600080fd5b50610364600480360381019061035f91906127a5565b610e03565b60405161037191906126f7565b60405180910390f35b34801561038657600080fd5b506103a1600480360381019061039c9190612513565b610eba565b6040516103ae91906128e1565b60405180910390f35b3480156103c357600080fd5b506103cc611158565b6040516103d99190612581565b60405180910390f35b3480156103ee57600080fd5b506103f761117e565b60405161040491906126f7565b60405180910390f35b34801561041957600080fd5b50610422611184565b60405161042f91906124bb565b60405180910390f35b34801561044457600080fd5b5061045f600480360381019061045a9190612a38565b611216565b005b34801561046d57600080fd5b5061048860048036038101906104839190612b35565b611364565b6040516104959190612410565b60405180910390f35b3480156104aa57600080fd5b506104c560048036038101906104c09190612ba1565b611393565b005b3480156104d357600080fd5b506104ee60048036038101906104e99190612712565b6113a9565b6040516104fb9190612581565b60405180910390f35b34801561051057600080fd5b5061052b60048036038101906105269190612c82565b6113eb565b005b34801561053957600080fd5b50610554600480360381019061054f9190612513565b61144d565b60405161056191906124bb565b60405180910390f35b34801561057657600080fd5b50610591600480360381019061058c9190612d05565b6114b5565b60405161059e9190612410565b60405180910390f35b60007f80ac58cd000000000000000000000000000000000000000000000000000000007bffffffffffffffffffffffffffffffffffffffffffffffffffffffff1916827bffffffffffffffffffffffffffffffffffffffffffffffffffffffff1916148061067257507f5b5e139f000000000000000000000000000000000000000000000000000000007bffffffffffffffffffffffffffffffffffffffffffffffffffffffff1916827bffffffffffffffffffffffffffffffffffffffffffffffffffffffff1916145b80610682575061068182611549565b5b9050919050565b60606000805461069890612d74565b80601f01602080910402602001604051908101604052809291908181526020018280546106c490612d74565b80156107115780601f106106e657610100808354040283529160200191610711565b820191906000526020600020905b8154815290600101906020018083116106f457829003601f168201915b5050505050905090565b6000610726826115b3565b6004600083815260200190815260200160002060009054906101000a900473ffffffffffffffffffffffffffffffffffffffff169050919050565b600061076c82610d7d565b90508073ffffffffffffffffffffffffffffffffffffffff168373ffffffffffffffffffffffffffffffffffffffff16036107dc576040517f08c379a00000000000000000000000000000000000000000000000000000000081526004016107d390612e17565b60405180910390fd5b8073ffffffffffffffffffffffffffffffffffffffff166107fb6115fe565b73ffffffffffffffffffffffffffffffffffffffff16148061082a5750610829816108246115fe565b6114b5565b5b610869576040517f08c379a000000000000000000000000000000000000000000000000000000000815260040161086090612ea9565b60405180910390fd5b6108738383611606565b505050565b6060600c60008381526020019081526020016000208054806020026020016040519081016040528092919081815260200182805480156108d757602002820191906000526020600020905b8154815260200190600101908083116108c3575b50505050509050919050565b60085481565b600082141580156108fc57506007548211155b61093b576040517f08c379a000000000000000000000000000000000000000000000000000000000815260040161093290612f15565b60405180910390fd5b6009600083815260200190815260200160002060020154341015610994576040517f08c379a000000000000000000000000000000000000000000000000000000000815260040161098b90612f81565b60405180910390fd5b600073ffffffffffffffffffffffffffffffffffffffff16600b6000848152602001908152602001600020600083815260200190815260200160002060009054906101000a900473ffffffffffffffffffffffffffffffffffffffff1673ffffffffffffffffffffffffffffffffffffffff1614610a47576040517f08c379a0000000000000000000000000000000000000000000000000000000008152600401610a3e90612fed565b60405180910390fd5b600081118015610a6d575060096000838152602001908152602001600020600401548111155b610aac576040517f08c379a0000000000000000000000000000000000000000000000000000000008152600401610aa390613059565b60405180910390fd5b6001600960008481526020019081526020016000206003016000828254610ad391906130a8565b925050819055506001600a600084815260200190815260200160002060003373ffffffffffffffffffffffffffffffffffffffff1673ffffffffffffffffffffffffffffffffffffffff16815260200190815260200160002060006101000a81548160ff02191690831515021790555033600b6000848152602001908152602001600020600083815260200190815260200160002060006101000a81548173ffffffffffffffffffffffffffffffffffffffff021916908373ffffffffffffffffffffffffffffffffffffffff160217905550600c600083815260200190815260200160002081908060018154018082558091505060019003906000526020600020016000909190919091505560086000815480929190610bf3906130dc565b9190505550610c04336008546116bf565b5050565b610c19610c136115fe565b826116dd565b610c58576040517f08c379a0000000000000000000000000000000000000000000000000000000008152600401610c4f90613196565b60405180910390fd5b610c63838383611772565b505050565b600660009054906101000a900473ffffffffffffffffffffffffffffffffffffffff1673ffffffffffffffffffffffffffffffffffffffff163373ffffffffffffffffffffffffffffffffffffffff1614610cc257600080fd5b6000600660009054906101000a900473ffffffffffffffffffffffffffffffffffffffff1673ffffffffffffffffffffffffffffffffffffffff1647604051610d0a906131e7565b60006040518083038185875af1925050503d8060008114610d47576040519150601f19603f3d011682016040523d82523d6000602084013e610d4c565b606091505b5050905080610d5a57600080fd5b50565b610d78838383604051806020016040528060008152506113eb565b505050565b600080610d8983611a6b565b9050600073ffffffffffffffffffffffffffffffffffffffff168173ffffffffffffffffffffffffffffffffffffffff1603610dfa576040517f08c379a0000000000000000000000000000000000000000000000000000000008152600401610df190613248565b60405180910390fd5b80915050919050565b60008073ffffffffffffffffffffffffffffffffffffffff168273ffffffffffffffffffffffffffffffffffffffff1603610e73576040517f08c379a0000000000000000000000000000000000000000000000000000000008152600401610e6a906132da565b60405180910390fd5b600360008373ffffffffffffffffffffffffffffffffffffffff1673ffffffffffffffffffffffffffffffffffffffff168152602001908152602001600020549050919050565b610ec2612317565b600960008381526020019081526020016000206040518061010001604052908160008201548152602001600182018054610efb90612d74565b80601f0160208091040260200160405190810160405280929190818152602001828054610f2790612d74565b8015610f745780601f10610f4957610100808354040283529160200191610f74565b820191906000526020600020905b815481529060010190602001808311610f5757829003601f168201915b50505050508152602001600282015481526020016003820154815260200160048201548152602001600582018054610fab90612d74565b80601f0160208091040260200160405190810160405280929190818152602001828054610fd790612d74565b80156110245780601f10610ff957610100808354040283529160200191611024565b820191906000526020600020905b81548152906001019060200180831161100757829003601f168201915b5050505050815260200160068201805461103d90612d74565b80601f016020809104026020016040519081016040528092919081815260200182805461106990612d74565b80156110b65780601f1061108b576101008083540402835291602001916110b6565b820191906000526020600020905b81548152906001019060200180831161109957829003601f168201915b505050505081526020016007820180546110cf90612d74565b80601f01602080910402602001604051908101604052809291908181526020018280546110fb90612d74565b80156111485780601f1061111d57610100808354040283529160200191611148565b820191906000526020600020905b81548152906001019060200180831161112b57829003601f168201915b5050505050815250509050919050565b600660009054906101000a900473ffffffffffffffffffffffffffffffffffffffff1681565b60075481565b60606001805461119390612d74565b80601f01602080910402602001604051908101604052809291908181526020018280546111bf90612d74565b801561120c5780601f106111e15761010080835404028352916020019161120c565b820191906000526020600020905b8154815290600101906020018083116111ef57829003601f168201915b5050505050905090565b600660009054906101000a900473ffffffffffffffffffffffffffffffffffffffff1673ffffffffffffffffffffffffffffffffffffffff163373ffffffffffffffffffffffffffffffffffffffff161461127057600080fd5b60076000815480929190611283906130dc565b91905055506040518061010001604052806007548152602001878152602001868152602001858152602001858152602001848152602001838152602001828152506009600060075481526020019081526020016000206000820151816000015560208201518160010190816112f891906134a6565b5060408201518160020155606082015181600301556080820151816004015560a082015181600501908161132c91906134a6565b5060c082015181600601908161134291906134a6565b5060e082015181600701908161135891906134a6565b50905050505050505050565b600a6020528160005260406000206020528060005260406000206000915091509054906101000a900460ff1681565b6113a561139e6115fe565b8383611aa8565b5050565b600b6020528160005260406000206020528060005260406000206000915091509054906101000a900473ffffffffffffffffffffffffffffffffffffffff1681565b6113fc6113f66115fe565b836116dd565b61143b576040517f08c379a000000000000000000000000000000000000000000000000000000000815260040161143290613196565b60405180910390fd5b61144784848484611c14565b50505050565b6060611458826115b3565b6000611462611c70565b9050600081511161148257604051806020016040528060008152506114ad565b8061148c84611c87565b60405160200161149d9291906135b4565b6040516020818303038152906040525b915050919050565b6000600560008473ffffffffffffffffffffffffffffffffffffffff1673ffffffffffffffffffffffffffffffffffffffff16815260200190815260200160002060008373ffffffffffffffffffffffffffffffffffffffff1673ffffffffffffffffffffffffffffffffffffffff16815260200190815260200160002060009054906101000a900460ff16905092915050565b60007f01ffc9a7000000000000000000000000000000000000000000000000000000007bffffffffffffffffffffffffffffffffffffffffffffffffffffffff1916827bffffffffffffffffffffffffffffffffffffffffffffffffffffffff1916149050919050565b6115bc81611d55565b6115fb576040517f08c379a00000000000000000000000000000000000000000000000000000000081526004016115f290613248565b60405180910390fd5b50565b600033905090565b816004600083815260200190815260200160002060006101000a81548173ffffffffffffffffffffffffffffffffffffffff021916908373ffffffffffffffffffffffffffffffffffffffff160217905550808273ffffffffffffffffffffffffffffffffffffffff1661167983610d7d565b73ffffffffffffffffffffffffffffffffffffffff167f8c5be1e5ebec7d5bd14f71427d1e84f3dd0314c0f7b2291e5b200ac8c7c3b92560405160405180910390a45050565b6116d9828260405180602001604052806000815250611d96565b5050565b6000806116e983610d7d565b90508073ffffffffffffffffffffffffffffffffffffffff168473ffffffffffffffffffffffffffffffffffffffff16148061172b575061172a81856114b5565b5b8061176957508373ffffffffffffffffffffffffffffffffffffffff166117518461071b565b73ffffffffffffffffffffffffffffffffffffffff16145b91505092915050565b8273ffffffffffffffffffffffffffffffffffffffff1661179282610d7d565b73ffffffffffffffffffffffffffffffffffffffff16146117e8576040517f08c379a00000000000000000000000000000000000000000000000000000000081526004016117df9061364a565b60405180910390fd5b600073ffffffffffffffffffffffffffffffffffffffff168273ffffffffffffffffffffffffffffffffffffffff1603611857576040517f08c379a000000000000000000000000000000000000000000000000000000000815260040161184e906136dc565b60405180910390fd5b6118648383836001611df1565b8273ffffffffffffffffffffffffffffffffffffffff1661188482610d7d565b73ffffffffffffffffffffffffffffffffffffffff16146118da576040517f08c379a00000000000000000000000000000000000000000000000000000000081526004016118d19061364a565b60405180910390fd5b6004600082815260200190815260200160002060006101000a81549073ffffffffffffffffffffffffffffffffffffffff02191690556001600360008573ffffffffffffffffffffffffffffffffffffffff1673ffffffffffffffffffffffffffffffffffffffff168152602001908152602001600020600082825403925050819055506001600360008473ffffffffffffffffffffffffffffffffffffffff1673ffffffffffffffffffffffffffffffffffffffff16815260200190815260200160002060008282540192505081905550816002600083815260200190815260200160002060006101000a81548173ffffffffffffffffffffffffffffffffffffffff021916908373ffffffffffffffffffffffffffffffffffffffff160217905550808273ffffffffffffffffffffffffffffffffffffffff168473ffffffffffffffffffffffffffffffffffffffff167fddf252ad1be2c89b69c2b068fc378daa952ba7f163c4a11628f55a4df523b3ef60405160405180910390a4611a668383836001611df7565b505050565b60006002600083815260200190815260200160002060009054906101000a900473ffffffffffffffffffffffffffffffffffffffff169050919050565b8173ffffffffffffffffffffffffffffffffffffffff168373ffffffffffffffffffffffffffffffffffffffff1603611b16576040517f08c379a0000000000000000000000000000000000000000000000000000000008152600401611b0d90613748565b60405180910390fd5b80600560008573ffffffffffffffffffffffffffffffffffffffff1673ffffffffffffffffffffffffffffffffffffffff16815260200190815260200160002060008473ffffffffffffffffffffffffffffffffffffffff1673ffffffffffffffffffffffffffffffffffffffff16815260200190815260200160002060006101000a81548160ff0219169083151502179055508173ffffffffffffffffffffffffffffffffffffffff168373ffffffffffffffffffffffffffffffffffffffff167f17307eab39ab6107e8899845ad3d59bd9653f200f220920489ca2b5937696c3183604051611c079190612410565b60405180910390a3505050565b611c1f848484611772565b611c2b84848484611dfd565b611c6a576040517f08c379a0000000000000000000000000000000000000000000000000000000008152600401611c61906137da565b60405180910390fd5b50505050565b606060405180602001604052806000815250905090565b606060006001611c9684611f84565b01905060008167ffffffffffffffff811115611cb557611cb461290d565b5b6040519080825280601f01601f191660200182016040528015611ce75781602001600182028036833780820191505090505b509050600082602001820190505b600115611d4a578080600190039150507f3031323334353637383961626364656600000000000000000000000000000000600a86061a8153600a8581611d3e57611d3d6137fa565b5b04945060008503611cf5575b819350505050919050565b60008073ffffffffffffffffffffffffffffffffffffffff16611d7783611a6b565b73ffffffffffffffffffffffffffffffffffffffff1614159050919050565b611da083836120d7565b611dad6000848484611dfd565b611dec576040517f08c379a0000000000000000000000000000000000000000000000000000000008152600401611de3906137da565b60405180910390fd5b505050565b50505050565b50505050565b6000611e1e8473ffffffffffffffffffffffffffffffffffffffff166122f4565b15611f77578373ffffffffffffffffffffffffffffffffffffffff1663150b7a02611e476115fe565b8786866040518563ffffffff1660e01b8152600401611e69949392919061387e565b6020604051808303816000875af1925050508015611ea557506040513d601f19601f82011682018060405250810190611ea291906138df565b60015b611f27573d8060008114611ed5576040519150601f19603f3d011682016040523d82523d6000602084013e611eda565b606091505b506000815103611f1f576040517f08c379a0000000000000000000000000000000000000000000000000000000008152600401611f16906137da565b60405180910390fd5b805181602001fd5b63150b7a0260e01b7bffffffffffffffffffffffffffffffffffffffffffffffffffffffff1916817bffffffffffffffffffffffffffffffffffffffffffffffffffffffff191614915050611f7c565b600190505b949350505050565b600080600090507a184f03e93ff9f4daa797ed6e38ed64bf6a1f0100000000000000008310611fe2577a184f03e93ff9f4daa797ed6e38ed64bf6a1f0100000000000000008381611fd857611fd76137fa565b5b0492506040810190505b6d04ee2d6d415b85acef8100000000831061201f576d04ee2d6d415b85acef81000000008381612015576120146137fa565b5b0492506020810190505b662386f26fc10000831061204e57662386f26fc100008381612044576120436137fa565b5b0492506010810190505b6305f5e1008310612077576305f5e100838161206d5761206c6137fa565b5b0492506008810190505b612710831061209c576127108381612092576120916137fa565b5b0492506004810190505b606483106120bf57606483816120b5576120b46137fa565b5b0492506002810190505b600a83106120ce576001810190505b80915050919050565b600073ffffffffffffffffffffffffffffffffffffffff168273ffffffffffffffffffffffffffffffffffffffff1603612146576040517f08c379a000000000000000000000000000000000000000000000000000000000815260040161213d90613958565b60405180910390fd5b61214f81611d55565b1561218f576040517f08c379a0000000000000000000000000000000000000000000000000000000008152600401612186906139c4565b60405180910390fd5b61219d600083836001611df1565b6121a681611d55565b156121e6576040517f08c379a00000000000000000000000000000000000000000000000000000000081526004016121dd906139c4565b60405180910390fd5b6001600360008473ffffffffffffffffffffffffffffffffffffffff1673ffffffffffffffffffffffffffffffffffffffff16815260200190815260200160002060008282540192505081905550816002600083815260200190815260200160002060006101000a81548173ffffffffffffffffffffffffffffffffffffffff021916908373ffffffffffffffffffffffffffffffffffffffff160217905550808273ffffffffffffffffffffffffffffffffffffffff16600073ffffffffffffffffffffffffffffffffffffffff167fddf252ad1be2c89b69c2b068fc378daa952ba7f163c4a11628f55a4df523b3ef60405160405180910390a46122f0600083836001611df7565b5050565b6000808273ffffffffffffffffffffffffffffffffffffffff163b119050919050565b60405180610100016040528060008152602001606081526020016000815260200160008152602001600081526020016060815260200160608152602001606081525090565b6000604051905090565b600080fd5b600080fd5b60007fffffffff0000000000000000000000000000000000000000000000000000000082169050919050565b6123a581612370565b81146123b057600080fd5b50565b6000813590506123c28161239c565b92915050565b6000602082840312156123de576123dd612366565b5b60006123ec848285016123b3565b91505092915050565b60008115159050919050565b61240a816123f5565b82525050565b60006020820190506124256000830184612401565b92915050565b600081519050919050565b600082825260208201905092915050565b60005b8381101561246557808201518184015260208101905061244a565b60008484015250505050565b6000601f19601f8301169050919050565b600061248d8261242b565b6124978185612436565b93506124a7818560208601612447565b6124b081612471565b840191505092915050565b600060208201905081810360008301526124d58184612482565b905092915050565b6000819050919050565b6124f0816124dd565b81146124fb57600080fd5b50565b60008135905061250d816124e7565b92915050565b60006020828403121561252957612528612366565b5b6000612537848285016124fe565b91505092915050565b600073ffffffffffffffffffffffffffffffffffffffff82169050919050565b600061256b82612540565b9050919050565b61257b81612560565b82525050565b60006020820190506125966000830184612572565b92915050565b6125a581612560565b81146125b057600080fd5b50565b6000813590506125c28161259c565b92915050565b600080604083850312156125df576125de612366565b5b60006125ed858286016125b3565b92505060206125fe858286016124fe565b9150509250929050565b600081519050919050565b600082825260208201905092915050565b6000819050602082019050919050565b61263d816124dd565b82525050565b600061264f8383612634565b60208301905092915050565b6000602082019050919050565b600061267382612608565b61267d8185612613565b935061268883612624565b8060005b838110156126b95781516126a08882612643565b97506126ab8361265b565b92505060018101905061268c565b5085935050505092915050565b600060208201905081810360008301526126e08184612668565b905092915050565b6126f1816124dd565b82525050565b600060208201905061270c60008301846126e8565b92915050565b6000806040838503121561272957612728612366565b5b6000612737858286016124fe565b9250506020612748858286016124fe565b9150509250929050565b60008060006060848603121561276b5761276a612366565b5b6000612779868287016125b3565b935050602061278a868287016125b3565b925050604061279b868287016124fe565b9150509250925092565b6000602082840312156127bb576127ba612366565b5b60006127c9848285016125b3565b91505092915050565b600082825260208201905092915050565b60006127ee8261242b565b6127f881856127d2565b9350612808818560208601612447565b61281181612471565b840191505092915050565b6000610100830160008301516128356000860182612634565b506020830151848203602086015261284d82826127e3565b91505060408301516128626040860182612634565b5060608301516128756060860182612634565b5060808301516128886080860182612634565b5060a083015184820360a08601526128a082826127e3565b91505060c083015184820360c08601526128ba82826127e3565b91505060e083015184820360e08601526128d482826127e3565b9150508091505092915050565b600060208201905081810360008301526128fb818461281c565b905092915050565b600080fd5b600080fd5b7f4e487b7100000000000000000000000000000000000000000000000000000000600052604160045260246000fd5b61294582612471565b810181811067ffffffffffffffff821117156129645761296361290d565b5b80604052505050565b600061297761235c565b9050612983828261293c565b919050565b600067ffffffffffffffff8211156129a3576129a261290d565b5b6129ac82612471565b9050602081019050919050565b82818337600083830152505050565b60006129db6129d684612988565b61296d565b9050828152602081018484840111156129f7576129f6612908565b5b612a028482856129b9565b509392505050565b600082601f830112612a1f57612a1e612903565b5b8135612a2f8482602086016129c8565b91505092915050565b60008060008060008060c08789031215612a5557612a54612366565b5b600087013567ffffffffffffffff811115612a7357612a7261236b565b5b612a7f89828a01612a0a565b9650506020612a9089828a016124fe565b9550506040612aa189828a016124fe565b945050606087013567ffffffffffffffff811115612ac257612ac161236b565b5b612ace89828a01612a0a565b935050608087013567ffffffffffffffff811115612aef57612aee61236b565b5b612afb89828a01612a0a565b92505060a087013567ffffffffffffffff811115612b1c57612b1b61236b565b5b612b2889828a01612a0a565b9150509295509295509295565b60008060408385031215612b4c57612b4b612366565b5b6000612b5a858286016124fe565b9250506020612b6b858286016125b3565b9150509250929050565b612b7e816123f5565b8114612b8957600080fd5b50565b600081359050612b9b81612b75565b92915050565b60008060408385031215612bb857612bb7612366565b5b6000612bc6858286016125b3565b9250506020612bd785828601612b8c565b9150509250929050565b600067ffffffffffffffff821115612bfc57612bfb61290d565b5b612c0582612471565b9050602081019050919050565b6000612c25612c2084612be1565b61296d565b905082815260208101848484011115612c4157612c40612908565b5b612c4c8482856129b9565b509392505050565b600082601f830112612c6957612c68612903565b5b8135612c79848260208601612c12565b91505092915050565b60008060008060808587031215612c9c57612c9b612366565b5b6000612caa878288016125b3565b9450506020612cbb878288016125b3565b9350506040612ccc878288016124fe565b925050606085013567ffffffffffffffff811115612ced57612cec61236b565b5b612cf987828801612c54565b91505092959194509250565b60008060408385031215612d1c57612d1b612366565b5b6000612d2a858286016125b3565b9250506020612d3b858286016125b3565b9150509250929050565b7f4e487b7100000000000000000000000000000000000000000000000000000000600052602260045260246000fd5b60006002820490506001821680612d8c57607f821691505b602082108103612d9f57612d9e612d45565b5b50919050565b7f4552433732313a20617070726f76616c20746f2063757272656e74206f776e6560008201527f7200000000000000000000000000000000000000000000000000000000000000602082015250565b6000612e01602183612436565b9150612e0c82612da5565b604082019050919050565b60006020820190508181036000830152612e3081612df4565b9050919050565b7f4552433732313a20617070726f76652063616c6c6572206973206e6f7420746f60008201527f6b656e206f776e6572206f7220617070726f76656420666f7220616c6c000000602082015250565b6000612e93603d83612436565b9150612e9e82612e37565b604082019050919050565b60006020820190508181036000830152612ec281612e86565b9050919050565b7f496e76616c6964206f63636173696f6e20494400000000000000000000000000600082015250565b6000612eff601383612436565b9150612f0a82612ec9565b602082019050919050565b60006020820190508181036000830152612f2e81612ef2565b9050919050565b7f496e73756666696369656e74207061796d656e74000000000000000000000000600082015250565b6000612f6b601483612436565b9150612f7682612f35565b602082019050919050565b60006020820190508181036000830152612f9a81612f5e565b9050919050565b7f5365617420616c72656164792074616b656e0000000000000000000000000000600082015250565b6000612fd7601283612436565b9150612fe282612fa1565b602082019050919050565b6000602082019050818103600083015261300681612fca565b9050919050565b7f496e76616c69642073656174206e756d62657200000000000000000000000000600082015250565b6000613043601383612436565b915061304e8261300d565b602082019050919050565b6000602082019050818103600083015261307281613036565b9050919050565b7f4e487b7100000000000000000000000000000000000000000000000000000000600052601160045260246000fd5b60006130b3826124dd565b91506130be836124dd565b92508282039050818111156130d6576130d5613079565b5b92915050565b60006130e7826124dd565b91507fffffffffffffffffffffffffffffffffffffffffffffffffffffffffffffffff820361311957613118613079565b5b600182019050919050565b7f4552433732313a2063616c6c6572206973206e6f7420746f6b656e206f776e6560008201527f72206f7220617070726f76656400000000000000000000000000000000000000602082015250565b6000613180602d83612436565b915061318b82613124565b604082019050919050565b600060208201905081810360008301526131af81613173565b9050919050565b600081905092915050565b50565b60006131d16000836131b6565b91506131dc826131c1565b600082019050919050565b60006131f2826131c4565b9150819050919050565b7f4552433732313a20696e76616c696420746f6b656e2049440000000000000000600082015250565b6000613232601883612436565b915061323d826131fc565b602082019050919050565b6000602082019050818103600083015261326181613225565b9050919050565b7f4552433732313a2061646472657373207a65726f206973206e6f74206120766160008201527f6c6964206f776e65720000000000000000000000000000000000000000000000602082015250565b60006132c4602983612436565b91506132cf82613268565b604082019050919050565b600060208201905081810360008301526132f3816132b7565b9050919050565b60008190508160005260206000209050919050565b60006020601f8301049050919050565b600082821b905092915050565b60006008830261335c7fffffffffffffffffffffffffffffffffffffffffffffffffffffffffffffffff8261331f565b613366868361331f565b95508019841693508086168417925050509392505050565b6000819050919050565b60006133a361339e613399846124dd565b61337e565b6124dd565b9050919050565b6000819050919050565b6133bd83613388565b6133d16133c9826133aa565b84845461332c565b825550505050565b600090565b6133e66133d9565b6133f18184846133b4565b505050565b5b818110156134155761340a6000826133de565b6001810190506133f7565b5050565b601f82111561345a5761342b816132fa565b6134348461330f565b81016020851015613443578190505b61345761344f8561330f565b8301826133f6565b50505b505050565b600082821c905092915050565b600061347d6000198460080261345f565b1980831691505092915050565b6000613496838361346c565b9150826002028217905092915050565b6134af8261242b565b67ffffffffffffffff8111156134c8576134c761290d565b5b6134d28254612d74565b6134dd828285613419565b600060209050601f83116001811461351057600084156134fe578287015190505b613508858261348a565b865550613570565b601f19841661351e866132fa565b60005b8281101561354657848901518255600182019150602085019450602081019050613521565b86831015613563578489015161355f601f89168261346c565b8355505b6001600288020188555050505b505050505050565b600081905092915050565b600061358e8261242b565b6135988185613578565b93506135a8818560208601612447565b80840191505092915050565b60006135c08285613583565b91506135cc8284613583565b91508190509392505050565b7f4552433732313a207472616e736665722066726f6d20696e636f72726563742060008201527f6f776e6572000000000000000000000000000000000000000000000000000000602082015250565b6000613634602583612436565b915061363f826135d8565b604082019050919050565b6000602082019050818103600083015261366381613627565b9050919050565b7f4552433732313a207472616e7366657220746f20746865207a65726f2061646460008201527f7265737300000000000000000000000000000000000000000000000000000000602082015250565b60006136c6602483612436565b91506136d18261366a565b604082019050919050565b600060208201905081810360008301526136f5816136b9565b9050919050565b7f4552433732313a20617070726f766520746f2063616c6c657200000000000000600082015250565b6000613732601983612436565b915061373d826136fc565b602082019050919050565b6000602082019050818103600083015261376181613725565b9050919050565b7f4552433732313a207472616e7366657220746f206e6f6e20455243373231526560008201527f63656976657220696d706c656d656e7465720000000000000000000000000000602082015250565b60006137c4603283612436565b91506137cf82613768565b604082019050919050565b600060208201905081810360008301526137f3816137b7565b9050919050565b7f4e487b7100000000000000000000000000000000000000000000000000000000600052601260045260246000fd5b600081519050919050565b600082825260208201905092915050565b600061385082613829565b61385a8185613834565b935061386a818560208601612447565b61387381612471565b840191505092915050565b60006080820190506138936000830187612572565b6138a06020830186612572565b6138ad60408301856126e8565b81810360608301526138bf8184613845565b905095945050505050565b6000815190506138d98161239c565b92915050565b6000602082840312156138f5576138f4612366565b5b6000613903848285016138ca565b91505092915050565b7f4552433732313a206d696e7420746f20746865207a65726f2061646472657373600082015250565b6000613942602083612436565b915061394d8261390c565b602082019050919050565b6000602082019050818103600083015261397181613935565b9050919050565b7f4552433732313a20746f6b656e20616c7265616479206d696e74656400000000600082015250565b60006139ae601c83612436565b91506139b982613978565b602082019050919050565b600060208201905081810360008301526139dd816139a1565b905091905056fea2646970667358221220d15c152b5e836de73ba4a7bc80289ef7c45956d226f775fd716d0a21aae47d2d64736f6c63430008110033",
  "linkReferences": {},
  "deployedLinkReferences": {}
}